{
    "contractName": "Ballot",
    "abi": [
        {
            "inputs": [],
            "stateMutability": "nonpayable",
            "type": "constructor"
        },
        {
            "inputs": [],
            "name": "manager",
            "outputs": [
                {
                    "internalType": "address",
                    "name": "",
                    "type": "address"
                }
            ],
            "stateMutability": "view",
            "type": "function"
        }
    ],
    "bytecode": "6080604052348015600f57600080fd5b50600080546001600160a01b031916331790556091806100306000396000f3fe6080604052348015600f57600080fd5b506004361060285760003560e01c8063481c6a7514602d575b600080fd5b600054603f906001600160a01b031681565b6040516001600160a01b03909116815260200160405180910390f3fea2646970667358221220a0446214caa51b019ac50cf8ba7689cc3f78fe96e1d5833fae8ea0f3c07f6dc964736f6c63430008030033",
    "sourcePath": "c:/src/ether/inbox/contracts/ballot.sol",
    "compiler": {
        "name": "solc",
        "version": "0.8.3+commit.8d00100c"
    },
    "functionHashes": {
        "manager()": "481c6a75"
    },
    "gasEstimates": {
        "creation": {
            "codeDepositCost": "29000",
            "executionCost": "20916",
            "totalCost": "49916"
        },
        "external": {
            "manager()": "1003"
        }
    }
}